:100000000C9434000C9449000C9449000C94490061
:100010000C9449000C9449000C9449000C9449003C
:100020000C9449000C9449000C9449000C9449002C
:100030000C9449000C9449000C9449000C9449001C
:100040000C9449000C9449000C9449000C9449000C
:100050000C9449000C9449000C9449000C944900FC
:100060000C9449000C94490011241FBECFEFD8E036
:10007000DEBFCDBF11E0A0E0B1E0E6E1F1E002C0FB
:1000800005900D92AC30B107D9F70E944B000C944B
:1000900089000C940000F8940E946000789488E431
:1000A0000E9475008FE60E9475008CE60E94750024
:1000B00081E60E94750080E091E00E947C00FFCF05
:1000C0008AB18E7F8AB98AB182608AB91092C000E3
:1000D00088E98093C10086E08093C20087E690E0C3
:1000E0009093C5008093C40008959091C00095FF3F
:1000F000FCCF8093C6000895CF93DF93EC0103C03B
:100100000E947500219688818111FACFDF91CF91ED
:060110000895F894FFCFF2
:0C0116000D0A4D756E646F210D0A00008B
:00000001FF
