S01200004C61623653657269616C2E737265636D
S11300000C9434000C9451000C9451000C94510045
S11300100C9451000C9451000C9451000C94510018
S11300200C9451000C9451000C9451000C94510008
S11300300C9451000C9451000C9451000C945100F8
S11300400C9451000C9451000C9421010C94510017
S11300500C9451000C9451000C9451000C945100D8
S11300600C9451000C94510011241FBECFEFD8E022
S1130070DEBFCDBF12E0A0E0B1E0EAE3F3E002C0EE
S113008005900D92A436B107D9F722E0A4E6B2E0B8
S113009001C01D92A636B207E1F70E94A4000C9499
S11300A09B010C940000809164028823E1F3109278
S11300B06402809165020895EEE7F0E0808181603A
S11300C0808380E480937C0087E880937A0008959D
S11300D0EAE7F0E080818064808380917A0086FD85
S11300E0FCCF80917800909179000895482F4F704B
S11300F082958F7020E030E014C0942F906295B9FF
S1130100EFE9FFE03197F1F700C00000982F90610C
S113011095B9EFE9FFE03197F1F700C000002F5FD8
S11301203F4F283EF3E03F0744F315B80895CF93BB
S1130130DF93EC0103C021960E9463018881811141
S1130140FACFDF91CF910895F8948FE384B915B86D
S11301500E945C000E944E01789480E091E00E942D
S113016097008DE291E00E9497008FE391E00E9456
S1130170970081E791E00E9497000E945300813329
S113018061F58BE991E00E94970087EC91E00E9471
S113019097000E9468009C01AEE5B0E00E948C01CB
S11301A02FEF33E040E050E00E946A01C0E2C20F4A
S11301B088EB91E00E9497008C2F0E94630186ECEB
S11301C091E00E9497002FEF87EA91E6215080404A
S11301D09040E1F700C00000C0CF823321F581EFE9
S11301E091E00E9497008EE092E00E9497000E94A6
S11301F05300C82F86EC91E00E9497008C2F0E9438
S113020076008AE292E00E94970087EC91E00E94D7
S113021097002FEF87EA91E6215080409040E1F764
S113022000C000009ACF8AE392E00E9497002FEF6B
S113023083ED90E3215080409040E1F700C000003E
S11302408CCF1F920F920FB60F9211242F933F93CE
S11302504F935F936F937F938F939F93AF93BF93CA
S1130260EF93FF938091C6008093650281E08093B1
S11302706402809165020E946301FF91EF91BF9136
S1130280AF919F918F917F916F915F914F913F912A
S11302902F910F900FBE0F901F9018958AB18E7FEB
S11302A08AB98AB182608AB91092C00088E98093C1
S11302B0C10086E08093C20087E690E09093C50079
S11302C08093C40008959091C00095FFFCCF809363
S11302D0C6000895A1E21A2EAA1BBB1BFD010DC086
S11302E0AA1FBB1FEE1FFF1FA217B307E407F507E2
S11302F020F0A21BB30BE40BF50B661F771F881FBE
S1130300991F1A9469F760957095809590959B0153
S1130310AC01BD01CF010895A29FB001B39FC001FC
S1130320A39F700D811D1124911DB29F700D811D1D
S10D03301124911D0895F894FFCFE5
S113033A3D3D3D3D3D3D3D3D3D3D3D3D3D3D3D3DDF
S113034A3D3D3D4D454E553D3D3D3D3D3D3D3D3D8E
S113035A3D3D3D3D3D3D3D3D3D3D200A00A1486FAB
S113036A6C61206465206E7565766F21200A0049E8
S113037A6E736572746520656C206EFA6D65726FB2
S113038A2073696E2070756E746F206465206C61C9
S113039A206F706369F36E20646573656164610A32
S11303AA00312E204C65657220706F74656E636926
S11303BAF36D6574726F200A20322E20456E7669B9
S11303CA6172204143534949200A000A2053656C4B
S11303DA656363696F6E61737465206C61206F7005
S11303EA63696F6E20310A0056616C6F72206C6506
S11303FA69646F3A20000A2D2D2D2D2D2D2D2D2DBA
S113040A2D2D2D2D2D2D2D2D2D2D2D2D2D2D2D2D0E
S113041A2D2D2D2D2D2D2D2D2D2D2D2D2D2D2D0A21
S113042A000A2053656C656363696F6E6173746552
S113043A206C61206F7063696F6E20320A00496E06
S113044A736572746120656C204153434949206184
S113045A20656E766961723A2000456E7669616438
S113046A6F2061204C4544730A000A4F7063696F18
S113047A6E206E6F2076616C6964612C20766F6CD5
S113048A7669656E646F20616C206D656E752E2EBB
S107049A2E0A000022
S9030000FC
