S01200004C61623653657269616C2E737265636D
S11300000C9434000C9446000C9446000C94460066
S11300100C9446000C9446000C9446000C94460044
S11300200C9446000C9446000C9446000C94460034
S11300300C9446000C9446000C9446000C94460024
S11300400C9446000C9446000C9496000C944600C4
S11300500C9446000C9446000C9446000C94460004
S11300600C9446000C94460011241FBECFEFD8E038
S1130070DEBFCDBF21E0A0E0B1E001C01D92A13000
S1130080B207E1F70E9477000C940D010C94000074
S1130090EEE7F0E080818160808380E480937C00DF
S11300A087E880937A000895EAE7F0E0808180642D
S11300B0808380917A0086FDFCCF809178009091B6
S11300C079000895982F9F7082958F70906295B9EA
S11300D0EFE3FFE13197F1F700C00000806185B9DB
S11300E08FE39FE10197F1F700C000000895F894B1
S11300F08FE384B915B80E9448000E94C000789428
S11301000E9454009C01AEE5B0E00E94FE002FEF77
S113011033E040E050E00E94DC0080E2820F0E9465
S1130120D500809100010E946200EACF1F920F92D5
S11301300FB60F9211242F933F934F935F936F93B6
S11301407F938F939F93AF93BF93EF93FF9380918C
S1130150C60080930001809100010E94D500FF91A8
S1130160EF91BF91AF919F918F917F916F915F912B
S11301704F913F912F910F900FBE0F901F901895A4
S11301808AB18E7F8AB98AB182608AB91092C0001E
S113019088E98093C10086E08093C20087E690E0FE
S11301A09093C5008093C40008959091C00095FF7A
S11301B0FCCF8093C6000895A1E21A2EAA1BBB1B94
S11301C0FD010DC0AA1FBB1FEE1FFF1FA217B3071F
S11301D0E407F50720F0A21BB30BE40BF50B661F35
S11301E0771F881F991F1A9469F7609570958095F9
S11301F090959B01AC01BD01CF010895A29FB00170
S1130200B39FC001A39F700D811D1124911DB29F46
S1110210700D811D1124911D0895F894FFCFE7
S9030000FC
