:020000020000FC
:040000000C941C0040
:040014000C946700E1
:100034000C947F000FEF0DBF08E00EBFF89400E8AA
:100044000093610004E000936100209A219A2898AB
:1000540029980FEF07B900E008B9529853985A9AB3
:100064005B9A0E94600001E000936F0004E000933B
:1000740068000CE000936D004427552766277894A8
:1000840058B945B9403031F0413049F0423061F05F
:10009400433079F0613011F453956627F1CF613024
:1000A40011F45A956627ECCF613011F45395662705
:1000B400E7CF613011F45A956627E2CF00E0009350
:1000C400800003E00093810008954A9B43954430E7
:1000D40009F44427403041F0413049F0423051F0B6
:1000E400433049F04B9B61E04B9B61E005C04B9B67
:1000F40061E002C001C000C0189501EE00938500C4
:100104000BE700938400403019F0413009F061E0BE
:0201140018953C
:00000001FF
