:100000000C9434000C9449000C9449000C94490061
:100010000C9449000C9449000C9449000C9449003C
:100020000C9449000C9449000C9449000C9449002C
:100030000C9449000C9449000C9449000C9449001C
:100040000C9449000C9449000C9449000C9449000C
:100050000C9449000C9449000C9449000C944900FC
:100060000C9449000C94490011241FBECFEFD8E036
:10007000DEBFCDBF11E0A0E0B1E0E2E0F3E002C0FE
:1000800005900D92A230B107D9F70E94B0000C94F0
:100090007F010C94000080E480937C00EAE7F0E0AC
:1000A00087E8808380818064808380917A0086FDE8
:1000B000FCCF0895ECE7F0E09081907F8F70892B62
:1000C0008083EAE7F0E080818064808380917A0019
:1000D00086FDFCCF809178009091790008954F9231
:1000E0005F926F927F92AF92BF92CF92DF92EF9228
:1000F000FF920F931F93CF93DF93CDB7DEB7290104
:100100003A019B01AC01241935094609570989892F
:100110009A89AB89BC89BC01CD016A197B098C091C
:100120009D090E941401A801970124193509460967
:1001300057090E944601C601B501620F731F841F53
:10014000951FDF91CF911F910F91FF90EF90DF905E
:10015000CF90BF90AF907F906F905F904F90089539
:100160000E944B000E94FC0080E00E945A00BC01EB
:1001700080E090E01F921F9229E02F9320E62F93BA
:100180000F2EF4EFAF2EBB24B394C12CD12CF02D45
:10019000EE24EA9413E0F12E00E010E020E030E0DD
:1001A000A9010E946F000F900F900F900F90CB014C
:1001B0000E94E4002FEF89EF90E0215080409040B2
:1001C000E1F700C00000D0CF843F21E0920710F497
:1001D00084EF91E0813629E0920710F080E699E003
:1001E0009093010180930001880F991F01979093CC
:1001F000890080938800089584B1826084B9A0E862
:10020000B0E01C92E1E8F0E010828FE39CE990936B
:1002100087008093860082E88C938AE180838CED4E
:1002200095E00E94E4000895DB018F939F930E9464
:100230007401BF91AF91A29F800D911DA39F900D5E
:10024000B29F900D11240895A1E21A2EAA1BBB1B88
:10025000FD010DC0AA1FBB1FEE1FFF1FA217B30792
:10026000E407F50720F0A21BB30BE40BF50B661FA8
:10027000771F881F991F1A9469F76095709580956C
:1002800090959B01AC01BD01CF010895052E97FB10
:100290001EF400940E945D0157FD07D00E942401C6
:1002A00007FC03D04EF40C945D01509540953095B9
:1002B00021953F4F4F4F5F4F0895909580957095D2
:1002C00061957F4F8F4F9F4F0895A29FB001B39FBD
:1002D000C001A39F700D811D1124911DB29F700D4F
:1002E000811D1124911D08950E946501A59F900D07
:1002F000B49F900DA49F800D911D11240895F89432
:02030000FFCF2D
:02030200DC0518
:00000001FF
