S010000050574D736572766F2E73726563F1
S11300000C9434000C9451000C9451000C94510045
S11300100C9451000C9451000C9451000C94510018
S11300200C9451000C9451000C9451000C94510008
S11300300C9451000C9451000C9451000C945100F8
S11300400C9451000C9451000C9451000C945100E8
S11300500C9451000C9451000C9451000C945100D8
S11300600C9451000C94510011241FBECFEFD8E022
S1130070DEBFCDBF11E0A0E0B1E0EEEFF3E002C0DF
S113008005900D92A430B107D9F721E0A4E0B1E0C6
S113009001C01D92A530B207E1F70E94B8000C948C
S11300A0FD010C94000080E480937C00EAE7F0E01A
S11300B087E8808380818064808380917A0086FDD4
S11300C0FCCF0895ECE7F0E09081907F8F70892B4E
S11300D08083EAE7F0E080818064808380917A0005
S11300E086FDFCCF809178009091790008954F921D
S11300F05F926F927F92AF92BF92CF92DF92EF9214
S1130100FF920F931F93CF93DF93CDB7DEB72901EF
S11301103A019B01AC01241935094609570989891B
S11301209A89AB89BC89BC01CD016A197B098C0908
S11301309D090E949201A8019701241935094609D5
S113014057090E94C401C601B501620F731F841FC1
S1130150951FDF91CF911F910F91FF90EF90DF904A
S1130160CF90BF90AF907F906F905F904F90089525
S11301700E9453000E9449010E947D010E942401B3
S113018080E00E946200BC0180E090E01F921F9218
S1130190D9E0DF93C0E6CF930F2EF4EFAF2EBB244C
S11301A0B394C12CD12CF02DEE24EA9413E0F12E5B
S11301B000E010E020E030E0A9010E9477000F90F9
S11301C00F900F900F90CB010E94310181E00E94AB
S11301D06200BC0180E090E01F921F92DF93CF93F6
S11301E020E030E0A9010E9477000F900F900F905B
S11301F00F90CB010E94610182E00E946200BC0169
S113020080E090E01F921F921F922FEF2F93A12C5A
S1130210B12C650120E030E0A9010E9477000F9025
S11302200F900F900F90862F0E9420012FEF89EFDF
S113023090E0215080409040E1F700C00000A0CF42
S11302408093040188BD08958AB180628AB914BC80
S113025015BC83E284BD84E085BD80E00E9420015A
S11302600895843F21E0920710F484EF91E08136F1
S113027029E0920710F080E699E0909301018093C1
S11302800001880F991F019790938900809388003B
S1130290089584B1826084B9A0E8B0E01C92E1E8DA
S11302A0F0E010828FE39CE99093870080938600AE
S11302B082E88C938AE180838CED95E00E94310181
S11302C00895843F21E0920710F484EF91E0813691
S11302D029E0920710F080E699E09093030180935F
S11302E002010024880F991F001C880F991F001C0D
S11302F0892F902D8093B40008958AB188608AB9BB
S1130300A0EBB0E01C92E1EBF0E0108287E3809375
S1130310B30083E28C938FE080838CED95E00E94A0
S113032061010895DB018F939F930E94F201BF91B5
S1130330AF91A29F800D911DA39F900DB29F900D30
S113034011240895A1E21A2EAA1BBB1BFD010DC0A6
S1130350AA1FBB1FEE1FFF1FA217B307E407F50771
S113036020F0A21BB30BE40BF50B661F771F881F4D
S1130370991F1A9469F760957095809590959B01E3
S1130380AC01BD01CF010895052E97FB1EF4009426
S11303900E94DB0157FD07D00E94A20107FC03D095
S11303A04EF40C94DB0150954095309521953F4FC8
S11303B04F4F5F4F089590958095709561957F4F4D
S11303C08F4F9F4F0895A29FB001B39FC001A39F79
S11303D0700D811D1124911DB29F700D811D11247A
S11303E0911D08950E94E301A59F900DB49F900D67
S11103F0A49F800D911D11240895F894FFCF51
S10703FEDC05DC0535
S9030000FC
