:020000020000FC
:0200000020C01E
:02000C0095C09D
:1000400082C00FEF0DBF08E00EBF20982198289ABC
:10005000299A0CE304B90FE70AB903E000936B0097
:1000600001E00093680001E000936E0005E005BD2B
:1000700004E606BD389A399A112744275527662782
:100080007727882799273327789405B1037C242F75
:10009000220F220F022B05B9303011F0092F01C0B9
:1000A000082F0030E9F00130E9F00230E9F00330C8
:1000B000E9F00430E9F00530E9F00630E9F0073006
:1000C000E9F00830E9F00930E9F00A30E9F00B30E6
:1000D000E9F00C30E9F00D30E9F00E30E9F01EC027
:1000E000AFE31DC0A6E01BC0ABE519C0AFE417C06D
:1000F000A6E615C0ADE613C0ADE711C0A7E00FC07E
:10010000AFE70DC0AFE60BC0A7E709C0ACE707C07B
:10011000A9E305C0AEE503C0A9E701C0A1E7409887
:1001200041980000000000000000ABB9303011F031
:10013000419A01C0409AA9CF0F93552311F451E081
:1001400077270F9118950F933395317004E606BD0C
:100150006395643651F4662783958A3011F48827B5
:100160009395963011F499278827552391F073952C
:10017000723079F4552703B10370202F212720FF17
:1001800002C000FF439521FF02C001FF4A95102FD6
:060190004F700F9118955D
:00000001FF
