:020000020000FC
:0200000020C01E
:02000C003CC0F6
:100040002FC00FEF0DBF08E00EBF20982198289A0F
:10005000299A0CE304B90FE70AB903E007B903E0F2
:1000600000936B0001E00093680001E000936E00D4
:1000700044275527789405B1037C242F220F220FA3
:10008000022B05B9F8CF0F93552341F451E000E05E
:1000900000936800002706BD05E005BD0F91189587
:1000A0000F9300E005BD002706BD03B10370102FBC
:1000B000062700FF01C0439501FF01C04A954F701C
:0E00C000612F01E00093680055270F911895FD
:00000001FF
