:100000000C9434000C9451000C9451000C94510049
:100010000C9451000C9451000C9451000C9451001C
:100020000C9451000C9451000C9451000C9451000C
:100030000C9451000C9451000C94B6000C94510097
:100040000C9451000C9451000C9451000C945100EC
:100050000C9451000C940D010C9451000C9451001F
:100060000C9451000C94510011241FBECFEFD8E026
:10007000DEBFCDBF11E0A0E0B1E0EEE3F2E002C0F0
:1000800005900D92A031B107D9F721E0A0E1B1E0D0
:1000900001C01D92A631B207E1F70E947D000C94C9
:1000A0001D010C9400008FEF8AB987B1897F87B951
:1000B00088B1866088B987B1886387B984B1806266
:1000C00084B988B1877C88B985B18F7D85B91BB823
:1000D000089582E084BD93E095BD9CE797BD809331
:1000E0006E00089580E680937C00EAE7F0E08FEAF6
:1000F000808380818064808308950E9453000E94E1
:1001000072000E946900789430E020E08091130131
:10011000882359F010921301211109C08091150113
:100120008F5F8093150121E002C0319920E080911A
:100130001201882359F010921201311109C08091E7
:10014000150181508093150131E002C0329930E0F1
:100150009091140180911501891720F485B1806276
:1001600085B9D4CF85B18F7D85B9D0CF1F920F923D
:100170000FB60F9211248F93EF93FF9388B1877C72
:1001800088B91BB880911101813089F018F0823054
:10019000D1F01FC0E0911401E295EF70F0E0E05063
:1001A000FF4F80818BB988B1806188B912C0E0911E
:1001B0001401EF70F0E0E050FF4F80818BB988B1FF
:1001C000806288B906C0809115018BB988B18860BA
:1001D00088B9809111018F5F80931101833011F4F0
:1001E00010921101809110018F5F80931001843172
:1001F00060F010921001319903C081E080931301E7
:10020000329903C081E080931201FF91EF918F91A9
:100210000F900FBE0F901F9018951F920F920FB660
:100220000F9211248F9380917900809314018F9104
:0E0230000F900FBE0F901F901895F894FFCFFF
:10023E003F065B4F666D7D077F6F777C395E797108
:00000001FF
