:100000000C9434000C9451000C9451000C94510049
:100010000C9451000C9451000C9451000C9451001C
:100020000C9451000C9451000C9451000C9451000C
:100030000C9451000C9451000C9451000C945100FC
:100040000C9451000C9451000C945D070C945100D9
:100050000C9451000C9451000C9451000C945100DC
:100060000C9451000C94510011241FBECFEFD8E026
:10007000DEBFCDBF15E0A0E0B1E0ECEDF2E102C0E3
:1000800005900D92A834B107D9F725E0A8E4B5E0B2
:1000900001C01D92AC34B207E1F70E94A5060C9492
:1000A0006C090C940000F999FECF92BD81BD60BD32
:1000B0008FB384608FBB8FB382608FBB0895F99933
:1000C000FECF92BD81BD8FB381608FBB80B5089597
:1000D00087B18F7C87B988B1806388B908959BB157
:1000E0009B7F9BB995B19F7C95B9813051F028F0E9
:1000F000823059F0833069F008958BB184608BB9F8
:10010000089585B1806185B9089585B1806285B90A
:1001100008958BB184608BB985B1806185B90895EC
:1001200080E480937C00EAE7F0E087E880838081C8
:100130008064808380917A0086FDFCCF0895ECE78F
:10014000F0E09081907F8F70892B8083EAE7F0E068
:1001500080818064808380917A0086FDFCCF8091CD
:1001600078009091790008954F925F926F927F92FC
:10017000AF92BF92CF92DF92EF92FF920F931F93B5
:10018000CF93DF93CDB7DEB729013A019B01AC01D4
:10019000241935094609570989899A89AB89BC8987
:1001A000BC01CD016A197B098C099D090E94C70811
:1001B000A801970124193509460957090E94F90831
:1001C000C601B501620F731F841F951FDF91CF9188
:1001D0001F910F91FF90EF90DF90CF90BF90AF9065
:1001E0007F906F905F904F900895CF93DF93CDB73E
:1001F000DEB760970FB6F894DEBF0FBECDBF96E4B2
:10020000998392E49A83805D8B838AE38C83611166
:100210001DC080E38D8395E030C0EDE0F0E0EC0F91
:10022000FD1FE80FF11D9DEC699F912D11249695FE
:1002300096959695392F330F232F220F220F230FD8
:10024000621B605D6083692F8F5F01C080E0611178
:10025000E4CF94E010C08150EDE0F0E0EC0FFD1F22
:10026000E80FF11D2081E1E0F0E0EC0FFD1FE90F48
:10027000F11D20839F5F8111EECF81E0890FE1E0C6
:10028000F0E0EC0FFD1FE90FF11D2DE020839E5FD4
:10029000E1E0F0E0EC0FFD1FE80FF11D8AE0808344
:1002A000E1E0F0E0EC0FFD1FE90FF11D1082CE013F
:1002B00001960E94BA0860960FB6F894DEBF0FBE92
:1002C000CDBFDF91CF910895CF93C82F80E091E00B
:1002D0000E94BA08C13059F028F0C23069F0C3302A
:1002E00081F013C08BE091E00E94BA080EC081E15A
:1002F00091E00E94BA0809C08AE191E00E94BA0820
:1003000004C083E291E00E94BA088EE291E00E946C
:10031000BA08CF91089526B1482F30E0082E02C0C8
:10032000359527950A94E2F720FD28C02FEF36E790
:1003300061E0215030406040E1F700C0000026B18C
:1003400030E0B90102C0759567958A95E2F760FDC6
:1003500017C086B190E0042E02C0959587950A9447
:10036000E2F780FFF6CF7FEF86E791E071508040A3
:100370009040E1F700C0000081E0089580E008951A
:1003800080E008952F923F924F925F926F927F92FA
:100390008F929F92AF92BF92CF92DF92EF92FF9295
:1003A0000F931F93CF93DF933C014B011A01290157
:1003B0008CE491E00E94BA08C0E084E00E948B01C6
:1003C000882329F08EE691E00E94BA089FC080E061
:1003D0000E949F00BC0180E090E01F921F921F923C
:1003E000D4EBDF93A12CB12C6501EE24EA9413E049
:1003F000F12E00E010E020E030E0A9010E94B400FE
:100400000F900F900F900F90C3010E94D40781E0CE
:100410000E949F00BC0180E090E01F921F921F92FB
:10042000DF930F2EFEE6AF2EB12CC12CD12CF02D78
:1004300020E030E0A9010E94B4000F900F900F90CF
:100440000F90C4010E94D40782E00E949F00BC016B
:1004500080E090E01F921F921F9220EA2F930F2EB0
:10046000FFE5AF2EB12CC12CD12CF02D20E030E0D7
:10047000A9010E94B4000F900F900F900F90C1013E
:100480000E94700883E00E949F00BC0180E090E021
:100490001F921F921F922AE02F93A12CB12C65016D
:1004A00020E030E0A9010E94B4000F900F900F905F
:1004B0000F90C2010E9411082FEF89EF90E02150A8
:1004C00080409040E1F700C00000CF5FC93108F4E0
:1004D00074CFC3010E94F007682F81E00E94F500ED
:1004E000C4010E94F007682F82E00E94F500C1015C
:1004F0000E949B08682F83E00E94F500C2010E94C1
:100500003908682F84E00E94F50056CFDF91CF9123
:100510001F910F91FF90EF90DF90CF90BF90AF9021
:100520009F908F907F906F905F904F903F902F9013
:1005300008957F928F929F92AF92BF92CF92DF9257
:10054000EF92FF920F931F93CF93DF934C015B01C8
:100550006A01790182E891E00E94BA08C4010E9410
:10056000F007782EC5010E94F007182FC6010E94DF
:100570009B08D82FC7010E943908C82F00E037C058
:10058000772019F07A94802F01C081E0153A18F491
:100590001F5F802F04C0163A10F01150802FD639FB
:1005A00018F4DF5F802F04C0D73910F0D150802FAE
:1005B000C53010F4CF5F05C0C63010F0C15001C087
:1005C000082F672DC4010E94D407612FC5010E9426
:1005D000D4076D2FC6010E9470086C2FC7010E94BE
:1005E00011088FE39CE90197F1F700C00000002398
:1005F00039F28BEA91E00E94BA08DF91CF911F9106
:100600000F91FF90EF90DF90CF90BF90AF909F90B1
:100610008F907F900895AF92BF92CF92DF92EF922A
:10062000FF920F931F93CF93DF936B017A015901D0
:10063000FC0101900020E9F73197E81BF90B349792
:1006400028F487EB91E00E94BA0861C0FC01208188
:10065000233529F08CEC91E00E94BA0858C0FC01C7
:100660002181D0EDD20F6AE370E00E94500900971B
:1006700029F481EE91E00E94BA0849C001960E94D7
:100680003209C82FD230A9F018F4D13031F03BC074
:10069000D330F1F0D43059F136C0853B08F0C4EBCB
:1006A0006C2FC6010E94D4076C2F81E00E94F500D8
:1006B0002EC08E3608F4CEE6C53B08F0C4EB6C2F96
:1006C000C7010E94D4076C2F82E00E94F5001FC072
:1006D0008F3508F4CFE5C13A08F0C0EA6C2FC501A8
:1006E0000E9470086C2F83E00E94F50010C08B30D0
:1006F00008F0CAE06C2FC8010E9411086C2F84E03A
:100700000E94F50004C08FEE91E00E94BA08DF91CC
:10071000CF911F910F91FF90EF90DF90CF90BF90FE
:10072000AF9008958F929F92AF92BF92CF92DF9237
:10073000EF92FF920F931F93CF93DF93CDB7DEB766
:1007400064970FB6F894DEBF0FBECDBF4C015B01BE
:100750006A01790188E092E00E94BA088BE392E096
:100760000E94BA0800E084E00E948B01882329F0EF
:100770008CE592E00E94BA083EC08091490588232A
:1007800091F310914A0510924905812F0E94B308F8
:100790001D3031F5E1E0F0E0EC0FFD1FE00FF11D41
:1007A000108265E772E0CE0101960E945B09892BF9
:1007B00041F067E772E0CE0101960E945B09892B48
:1007C00029F48CE592E00E94BA0815C087019601D1
:1007D000A501B401CE0101960E940B0300E0C3CF36
:1007E000033108F6E1E0F0E0EC0FFD1FE00FF11D32
:1007F00010830F5FB8CF64960FB6F894DEBF0FBEBC
:10080000CDBFDF91CF911F910F91FF90EF90DF90BF
:10081000CF90BF90AF909F908F9008952F923F926E
:100820004F925F926F927F928F929F92AF92BF9200
:10083000CF92DF92EF92FF920F931F93CF93DF93AC
:10084000CDB7DEB760970FB6F894DEBF0FBECDBF51
:100850009A8789877C876B875E874D87388B2F8740
:1008600089E792E00E94BA088FEA92E00E94BA08F3
:1008700010E00AC0812F90E06FEF880F991F880F5A
:10088000991F0E9453001F5F1430A0F3412C612C6C
:10089000712C312C512C80E00E949F00BC0180E023
:1008A00090E01F921F921F920F2EF4EB9F2EF02DBF
:1008B0009F92A12CB12C6501EE24EA9413E0F12E55
:1008C00000E010E020E030E0A9010E94B4000F90A9
:1008D0000F900F900F90262E81E00E949F00BC0188
:1008E00080E090E01F921F921F929F920F2EFEE6D3
:1008F000AF2EB12CC12CD12CF02D20E030E0A9017D
:100900000E94B4000F900F900F900F90862E82E0FF
:100910000E949F00BC0180E090E01F921F921F92F6
:1009200020EA2F930F2EFFE5AF2EB12CC12CD12C36
:10093000F02D20E030E0A9010E94B4000F900F904C
:100940000F900F90962E83E00E949F00BC0180E0E4
:1009500090E01F921F921F922AE02F93A12CB12C9E
:10096000650120E030E0A9010E94B4000F900F90D3
:100970000F900F90162F622D89859A850E94D407BB
:10098000682D8B859C850E94D407692D8D859E8559
:100990000E947008612F8F8598890E9411082FEF9F
:1009A00039EF80E0215030408040E1F700C0000086
:1009B000411015C09FEF691A790A2FE06216710481
:1009C00070F081E0382631F085B1806285B9612C04
:1009D000712C05C085B18F7D85B9612C712C84E0A7
:1009E0000E948B018823E1F085B18F7C85B98CEE64
:1009F00092E00E94BA0885E093E00E94BA0880E382
:100A0000850D89838DE08A838AE08B831C82CE01E9
:100A100001960E94BA088AE293E00E94BA0883C055
:100A200085E00E948B01882309F435CF442029F00A
:100A30008CE393E00E94BA082ECFE52CF12CEE0C4B
:100A4000FF1CEE0CFF1C622DC7010E945300682D95
:100A5000C70101960E945300692DC70102960E94AA
:100A60005300612FC70103960E94530085B18F7D0B
:100A700085B990E019C085B1806285B93FEF8DEEF0
:100A800022E0315080402040E1F700C0000085B1F5
:100A90008F7D85B93FEF8DEE22E0315080402040C0
:100AA000E1F700C000009F5F923028F301E0050DE0
:100AB00085E693E00E94BA0881E3850D8D838FE27D
:100AC0008E8384E38F831886CE0105960E94BA0830
:100AD00088E793E00E94BA08622D81E00E94F50049
:100AE000682D82E00E94F500692D83E00E94F500E8
:100AF000612F84E00E94F500043098F085B18F7D6D
:100B000085B985B1806285B985B1806185B985E88F
:100B100093E00E94BA0887EB93E00E94BA0844244D
:100B20004394502EB8CE60960FB6F894DEBF0FBE39
:100B3000CDBFDF91CF911F910F91FF90EF90DF908C
:100B4000CF90BF90AF909F908F907F906F905F906D
:100B50004F903F902F9008952F923F924F925F9227
:100B60006F927F928F929F92AF92BF92CF92DF92BD
:100B7000EF92FF920F931F93CF93DF93CDB7DEB722
:100B800027970FB6F894DEBF0FBECDBF7C017E83E2
:100B90006D836A01590182ED93E00E94BA088BEFE0
:100BA00093E00E94BA089501A6016D817E81C7017C
:100BB0000E9499021F820F2EF5E06F2EF02D0F2E4E
:100BC000F6E97F2EF02D05EA10E09EC084E00E9439
:100BD0008B01882329F08BE194E00E94BA0898C029
:100BE0008F81882E912C880C991C880C991CC4012B
:100BF0000E945F008F3F29F481E494E00E94BA08CC
:100C000087C0C4010E945F00382EC40101960E9473
:100C10005F00482EC40102960E945F00582EC40156
:100C200003960E945F00282E89E694E00E94BA088D
:100C30008F818F5C89838FE28A8384E38B831C821C
:100C4000CE0101960E94BA08632D81E00E94F50052
:100C5000642D82E00E94F500652D83E00E94F5007E
:100C6000622D84E00E94F500912C48C084E00E942F
:100C70008B01882329F08EE794E00E94BA084CC0CB
:100C8000131518F41F5F892C07C0311618F4115082
:100C9000892C02C088248394612FC7010E94D40745
:100CA000041518F40F5F892C04C0401610F401508D
:100CB000892C602F8D819E810E94D407751418F4B1
:100CC0007394892C04C0571410F47A94892C672DDE
:100CD000C6010E947008621410F4639405C02614C3
:100CE00010F46A9401C0982C662DC5010E94110869
:100CF0008FE39CE90197F1F700C00000992009F407
:100D0000B5CF9F819F5F9F838F81843008F45ECF32
:100D10008BEA94E00E94BA0827960FB6F894DEBFDB
:100D20000FBECDBFDF91CF911F910F91FF90EF903C
:100D3000DF90CF90BF90AF909F908F907F906F90FB
:100D40005F904F903F902F900895CF93DF93CDB752
:100D5000DEB72D970FB6F894DEBF0FBECDBFF89467
:100D60000E94900060E0CE0101960E94700761E051
:100D7000CE0105960E94700766E9CE0109960E9491
:100D80008C0865E0CE010C960E942A0860E0CE0136
:100D900001960E94D40765EACE0105960E94D40709
:100DA0000E949E080E9468008AB184608AB98BB153
:100DB0008B7F8BB984B1806384B985B18F7C85B911
:100DC0007894809148050E946F0081ED94E00E9424
:100DD000BA0885EF94E00E94BA0880E295E00E948C
:100DE000BA08809148050E94640184E00E948B014A
:100DF0008823A1F08091480590E001968370907857
:100E0000992324F401978C6F9F6F01968093480576
:100E10000E946F00809148050E94640185E00E9455
:100E20008B01882311F3809148058130A1F028F0CF
:100E30008230F9F0833059F137C09E01245F3F4F73
:100E4000AE01475F5F4FBE016B5F7F4FCE010196E2
:100E50000E94C20129C09E01245F3F4FAE01475F3F
:100E60005F4FBE016B5F7F4FCE0101960E949203E0
:100E70001BC09E01245F3F4FAE01475F5F4FBE0125
:100E80006B5F7F4FCE0101960E940E040DC09E0144
:100E9000245F3F4FAE01475F5F4FBE016B5F7F4FE7
:100EA000CE0101960E94AC05809148050E946F001A
:100EB000809148050E94640198CF1F920F920FB64F
:100EC0000F9211248F938091C60080934A0581E090
:100ED000809349058F910F900FBE0F901F9018952A
:100EE000FC0160838CED95E0928381838AE58383A6
:100EF00080914B05811118C0A0E8B0E01C92E1E898
:100F0000F0E010828C9182608C9380818861808374
:100F10008081826080838FE39CE990938700809337
:100F2000860081E080934B0561110FC084B182601F
:100F300084B9E0E8F0E080818068808388EB9BE002
:100F40009093890080938800089584B1846084B967
:100F5000E0E8F0E080818062808388EB9BE0909302
:100F60008B0080938A000895643F21E0720710F49B
:100F700064EF71E06136E9E07E0710F060E679E049
:100F8000FC01728361838081811107C0660F771F26
:100F900070938900609388000895660F771F70939F
:100FA0008B0060938A000895CF93DF93EC01653B3B
:100FB00008F064EB6B83262F30E0ACE6B7E00E94CC
:100FC000180924EB30E040E050E00E94D708B90156
:100FD0006C507E4FCE010E94B407DF91CF910895EF
:100FE000FC018381089514BC15BC84B5836084BD65
:100FF00085B5886085BD84B5806284BD85B5856012
:1010000085BD89EF87BD8AB180628AB908956A304B
:1010100008F46AE0623208F061E2FC01608368BDB6
:101020000895FC01653608F064E6618387E1689FF6
:10103000900111243695279536952795ABE7B4E1B5
:101040000E941809969587956AE0680FCF010E9463
:10105000070808951F93CF93DF93EC01162F0E948A
:10106000F307612FCE010E941108DF91CF911F91EC
:101070000895FC0181810895A0EBB0E01C92E1EBA2
:10108000F0E010828C9183608C93808188608083F3
:101090008C9180628C938081876080838FEF8093B6
:1010A000B3008AB188608AB90895643F21E072076D
:1010B00010F464EF71E06136E9E07E0710F060E65D
:1010C00079E0FC01718360830024660F771F001CA8
:1010D000660F771F001C672F702D6093B400089572
:1010E000CF93DF93EC01653B08F064EB6A83262F16
:1010F00030E0ACE6B7E00E94180924EB30E040E0B5
:1011000050E00E94D708B9016C507E4FCE010E947A
:101110005508DF91CF9108951F93CF93DF93EC0192
:10112000162F0E943C08612FCE010E947008DF91AB
:10113000CF911F910895FC01828108958AB18E7F1D
:101140008AB98AB182608AB91092C00088E9809316
:10115000C10086E08093C20087E690E09093C500CE
:101160008093C40008959091C00095FFFCCF8093B8
:10117000C6000895CF93DF93EC0103C00E94B3082B
:10118000219688818111FACFDF91CF910895DB01FB
:101190008F939F930E942709BF91AF91A29F800DCB
:1011A000911DA39F900DB29F900D11240895A1E26F
:1011B0001A2EAA1BBB1BFD010DC0AA1FBB1FEE1FD1
:1011C000FF1FA217B307E407F50720F0A21BB30B1C
:1011D000E40BF50B661F771F881F991F1A9469F798
:1011E00060957095809590959B01AC01BD01CF01F4
:1011F0000895052E97FB1EF400940E94100957FDD8
:1012000007D00E94D70807FC03D04EF40C941009B5
:1012100050954095309521953F4F4F4F5F4F089522
:1012200090958095709561957F4F8F4F9F4F089552
:10123000A29FB001B39FC001A39F700D811D112417
:10124000911DB29F700D811D1124911D08950E9462
:101250001809A59F900DB49F900DA49F800D911D1E
:1012600011240895FC0188279927E89421912032C0
:10127000E9F3293010F02E30C8F32B3241F02D3233
:1012800039F4689404C00E946409820F911D219171
:1012900020532A30C0F31EF4909581959F4F0895F6
:1012A000FC018191861721F08823D9F799270895A9
:1012B0003197CF010895FB01DC018D9101908019D8
:1012C0000110D9F3990B08957AE0979F902D879F8D
:0C12D000802D910D11240895F894FFCF9B
:1012DC000D0A3E204D6F646F3A20004144430D0AC5
:1012EC000053455249414C0D0A005245434F52445C
:1012FC000D0A00504C41594241434B0D0A0020202D
:10130C005043353D656A65637574617220205043A6
:10131C00343D63616D626961720D0A000D0A5B41B7
:10132C0044435D2041637469766F2E205043342012
:10133C00706172612073616C69722E0D0A005B41E1
:10134C0044435D2053616C69656E646F2E2E2E0DC7
:10135C000A000D0A5B484F4D455D204D6F7669655F
:10136C006E646F206120706F736963696F6E207398
:10137C0065677572612E2E2E0D0A005B484F4D4528
:10138C005D204F4B0D0A000D0A436F6D616E646F4B
:10139C0020696E76616C69646F0D0A000D0A466FE8
:1013AC00726D61746F20696E76616C69646F0D0A81
:1013BC00000D0A46616C746120273A270D0A000D56
:1013CC000A536572766F20696E76616C69646F2062
:1013DC0028312D34290D0A000D0A5B534552494121
:1013EC004C5D2053313A302D3138302053323A3164
:1013FC0031302D3138302053333A39352D313630A8
:10140C002053343A302D31300D0A0020202020207A
:10141C0020202020277127206F205043342070611A
:10142C0072612073616C69722E0D0A000D0A5B5398
:10143C00455249414C5D2053616C69656E646F2E59
:10144C002E2E0D0A00710051000D0A5B5245434FC0
:10145C0052445D204D7565766520706F74732E2037
:10146C005043353D6775617264617220706F7365AE
:10147C002E205043343D73616C69722E0D0A005B53
:10148C005245434F52445D204D61782034206B65AA
:10149C00796672616D65732E204C4544205042353F
:1014AC00207061727061646561206D69656E747223
:1014BC0061732067726162612E0D0A000D0A5B5226
:1014CC0045434F52445D2053616C69656E646F2EC9
:1014DC002E2E0D0A005B5245434F52445D20546F33
:1014EC0074616C206B65796672616D6573206775CC
:1014FC0061726461646F733A20005B5245434F52D2
:10150C00445D204C6973746F2E0D0A005B52454389
:10151C004F52445D20454550524F4D206C6C656ECA
:10152C00612E2050433420706172612073616C69AC
:10153C00722E0D0A005B5245434F52445D204B65A1
:10154C00796672616D6520002067756172646164F3
:10155C006F2E0D0A005B5245434F52445D20342FD1
:10156C0034206B65796672616D6573206775617285
:10157C006461646F732E20454550524F4D206C6C46
:10158C00656E612E0D0A005B5245434F52445D203F
:10159C0050433420706172612073616C69722E0D3E
:1015AC000A000D0A5B504C41594241434B5D2049A6
:1015BC006E696369616E646F20726570726F6475B9
:1015CC006363696F6E2E2E2E0D0A005B504C4159D1
:1015DC004241434B5D205043342070617261206363
:1015EC00616E63656C61722E0D0A000D0A5B504CC6
:1015FC0041594241434B5D2043616E63656C6164AC
:10160C006F20706F72207573756172696F2E0D0A81
:10161C00005B504C41594241434B5D2046696E2062
:10162C006465206B65796672616D657320677261A4
:10163C006261646F732E0D0A005B504C415942413C
:10164C00434B5D204B65796672616D6520000D0A18
:10165C005B504C41594241434B5D2043616E636585
:10166C006C61646F20647572616E7465206D6F7649
:10167C00696D69656E746F2E0D0A005B504C415993
:10168C004241434B5D20526570726F6475636369B0
:10169C006F6E2066696E616C697A6164612E0D0AE9
:1016AC00000D0A3D3D3D204272617A6F20726F62DF
:1016BC006F7469636F20696E69636961646F203D43
:1016CC003D3D0D0A0053313A302D31383020205336
:1016DC00323A3131302D313830202053333A3935CC
:1016EC002D313630202053343A302D31300D0A0054
:1016FC0042544E20504334203D206D6F646F2020A7
:10170C007C202042544E20504335203D20656A6594
:08171C0063757461720D0A008F
:00000001FF
