S018000050726F796563746F20322047617272612E7372656358
S11300000C9434000C9451000C9451000C94510045
S11300100C9451000C9451000C9451000C94510018
S11300200C9451000C9451000C9451000C94510008
S11300300C9451000C9451000C9451000C945100F8
S11300400C9451000C9451000C9426070C9451000C
S11300500C9451000C9451000C9451000C945100D8
S11300600C9451000C94510011241FBECFEFD8E022
S1130070DEBFCDBF15E0A0E0B1E0EEE6F2E102C0E4
S113008005900D92AA33B107D9F725E0AAE3B5E0AC
S113009001C01D92AE33B207E1F70E946E060C94C4
S11300A035090C940000F999FECF92BD81BD60BD65
S11300B08FB384608FBB8FB382608FBB0895F9992F
S11300C0FECF92BD81BD8FB381608FBB80B5089593
S11300D087B18F7C87B988B1806388B908959BB153
S11300E09B7F9BB995B19F7C95B9813051F028F0E5
S11300F0823059F0833069F008958BB184608BB9F4
S1130100089585B1806185B9089585B1806285B906
S113011008958BB184608BB985B1806185B90895E8
S113012080E480937C00EAE7F0E087E880838081C4
S11301308064808380917A0086FDFCCF0895ECE78B
S1130140F0E09081907F8F70892B8083EAE7F0E064
S113015080818064808380917A0086FDFCCF8091C9
S113016078009091790008954F925F926F927F92F8
S1130170AF92BF92CF92DF92EF92FF920F931F93B1
S1130180CF93DF93CDB7DEB729013A019B01AC01D0
S1130190241935094609570989899A89AB89BC8983
S11301A0BC01CD016A197B098C099D090E94900844
S11301B0A801970124193509460957090E94C20864
S11301C0C601B501620F731F841F951FDF91CF9184
S11301D01F910F91FF90EF90DF90CF90BF90AF9061
S11301E07F906F905F904F900895CF93DF93CDB73A
S11301F0DEB760970FB6F894DEBF0FBECDBF96E4AE
S1130200998392E49A83805D8B838AE38C83611162
S11302101DC080E38D8395E030C0EDE0F0E0EC0F8D
S1130220FD1FE80FF11D9DEC699F912D11249695FA
S113023096959695392F330F232F220F220F230FD4
S1130240621B605D6083692F8F5F01C080E0611174
S1130250E4CF94E010C08150EDE0F0E0EC0FFD1F1E
S1130260E80FF11D2081E1E0F0E0EC0FFD1FE90F44
S1130270F11D20839F5F8111EECF81E0890FE1E0C2
S1130280F0E0EC0FFD1FE90FF11D2DE020839E5FD0
S1130290E1E0F0E0EC0FFD1FE80FF11D8AE0808340
S11302A0E1E0F0E0EC0FFD1FE90FF11D1082CE013B
S11302B001960E94830860960FB6F894DEBF0FBEC5
S11302C0CDBFDF91CF910895CF93C82F80E091E007
S11302D00E948308C13059F028F0C23069F0C3305D
S11302E081F013C08BE091E00E9483080EC081E18D
S11302F091E00E94830809C08AE191E00E9483088A
S113030004C083E291E00E9483088EE291E00E949F
S11303108308CF91089526B1482F30E0082E02C0FB
S1130320359527950A94E2F720FD28C02FEF36E78C
S113033061E0215030406040E1F700C0000026B188
S113034030E0B90102C0759567958A95E2F760FDC2
S113035017C086B190E0042E02C0959587950A9443
S1130360E2F780FFF6CF7FEF86E791E0715080409F
S11303709040E1F700C0000081E0089580E0089516
S113038080E008952F923F924F925F926F927F92F6
S11303908F929F92AF92BF92CF92DF92EF92FF9291
S11303A00F931F93CF93DF933C014B011A01290153
S11303B08CE491E00E948308C0E084E00E948B01F9
S11303C0882329F08EE691E00E9483089FC080E094
S11303D00E949F00BC0180E090E01F921F921F9238
S11303E0D4EBDF93A12CB12C6501EE24EA9413E045
S11303F0F12E00E010E020E030E0A9010E94B400FA
S11304000F900F900F900F90C3010E949D0781E001
S11304100E949F00BC0180E090E01F921F921F92F7
S1130420DF930F2EFEE6AF2EB12CC12CD12CF02D74
S113043020E030E0A9010E94B4000F900F900F90CB
S11304400F90C4010E949D0782E00E949F00BC019E
S113045080E090E01F921F921F9220EA2F930F2EAC
S1130460FFE5AF2EB12CC12CD12CF02D20E030E0D3
S1130470A9010E94B4000F900F900F900F90C1013A
S11304800E94390883E00E949F00BC0180E090E054
S11304901F921F921F922AE02F93A12CB12C650169
S11304A020E030E0A9010E94B4000F900F900F905B
S11304B00F90C2010E94DA072FEF89EF90E02150DC
S11304C080409040E1F700C00000CF5FC93108F4DC
S11304D074CFC3010E94B907682F81E00E94F50020
S11304E0C4010E94B907682F82E00E94F500C1018F
S11304F00E946408682F83E00E94F500C2010E94F4
S11305000208682F84E00E94F50056CFDF91CF9156
S11305101F910F91FF90EF90DF90CF90BF90AF901D
S11305209F908F907F906F905F904F903F902F900F
S113053008957F928F929F92AF92BF92CF92DF9253
S1130540EF92FF920F931F93CF93DF934C015B01C4
S11305506A01790182E891E00E948308C4010E9443
S1130560B907782EC5010E94B907182FC6010E9449
S11305706408D82FC7010E940208C82F00E037C0C2
S1130580772019F07A94802F01C081E0153A18F48D
S11305901F5F802F04C0163A10F01150802FD639F7
S11305A018F4DF5F802F04C0D73910F0D150802FAA
S11305B0C53010F4CF5F05C0C63010F0C15001C083
S11305C0082F672DC4010E949D07612FC5010E9459
S11305D09D076D2FC6010E9439086C2FC7010E9428
S11305E0DA078FE39CE90197F1F700C000000023CC
S11305F039F28BEA91E00E948308DF91CF911F9139
S11306000F91FF90EF90DF90CF90BF90AF909F90AD
S11306108F907F900895AF92BF92CF92DF92EF9226
S1130620FF920F931F93CF93DF936B017A015901CC
S1130630FC0101900020E9F73197E81BF90B34978E
S113064028F487EB91E00E94830861C0FC012081BB
S1130650233529F08CEC91E00E94830858C0FC01FA
S11306602181D0EDD20F6AE370E00E94190900974E
S113067029F481EE91E00E94830849C001960E940A
S1130680FB08C82FD230A9F018F4D13031F03BC0A8
S1130690D330F1F0D43059F136C0853B08F0C4EBC7
S11306A06C2FC6010E949D076C2F81E00E94F5000B
S11306B02EC08E3608F4CEE6C53B08F0C4EB6C2F92
S11306C0C7010E949D076C2F82E00E94F5001FC0A5
S11306D08F3508F4CFE5C13A08F0C0EA6C2FC501A4
S11306E00E9439086C2F83E00E94F50010C08B3003
S11306F008F0CAE06C2FC8010E94DA076C2F84E06E
S11307000E94F50004C08FEE91E00E948308DF91FF
S1130710CF911F910F91FF90EF90DF90CF90BF90FA
S1130720AF9008958F929F92AF92BF92CF92DF9233
S1130730EF92FF920F931F93CF93DF93CDB7DEB762
S113074064970FB6F894DEBF0FBECDBF4C015B01BA
S11307506A01790188E092E00E9483088BE392E0C9
S11307600E94830800E084E00E948B01882329F022
S11307708CE592E00E9483083EC080913B0588236B
S113078091F310913C0510923B05812F0E947C0847
S11307901D3031F5E1E0F0E0EC0FFD1FE00FF11D3D
S11307A0108265E772E0CE0101960E942409892B2C
S11307B041F067E772E0CE0101960E942409892B7B
S11307C029F48CE592E00E94830815C08701960104
S11307D0A501B401CE0101960E940B0300E0C3CF32
S11307E0033108F6E1E0F0E0EC0FFD1FE00FF11D2E
S11307F010830F5FB8CF64960FB6F894DEBF0FBEB8
S1130800CDBFDF91CF911F910F91FF90EF90DF90BB
S1130810CF90BF90AF909F908F9008952F923F926A
S11308204F925F926F927F928F929F92AF92BF92FC
S1130830CF92DF92EF92FF920F931F93CF93DF93A8
S1130840CDB7DEB72C970FB6F894DEBF0FBECDBF81
S11308502C013B015A8749873C872B8789E792E023
S11308600E9483088FEA92E00E948308212C80E092
S11308700E949F00BC0180E090E01F921F921F9293
S11308800F2EF4EB9F2EF02D9F92A12CB12C65011D
S1130890EE24EA9413E0F12E00E010E020E030E0D2
S11308A0A9010E94B4000F900F900F900F90362E64
S11308B0C2010E949D0781E00E949F00BC0180E06C
S11308C090E01F921F921F929F920F2EFEE6AF2E72
S11308D0B12CC12CD12CF02D20E030E0A9010E94D4
S11308E0B4000F900F900F900F90862EC3010E94BA
S11308F09D0782E00E949F00BC0180E090E01F926F
S11309001F921F9220EA2F930F2EFFE5AF2EB12CDA
S1130910C12CD12CF02D20E030E0A9010E94B400BC
S11309200F900F900F900F90962E89859A850E94B4
S1130930390883E00E949F00BC0180E090E01F9290
S11309401F921F922AE02F93A12CB12C650120E065
S113095030E0A9010E94B4000F900F900F900F9007
S1130960162F8B859C850E94DA072FEF89EF90E084
S1130970215080409040E1F700C0000084E00E94D4
S11309808B018823C9F088EE92E00E94830881E0FD
S113099093E00E94830880E3820D89838DE08A833B
S11309A08AE08B831C82CE0101960E94830886E232
S11309B093E00E94830870C085E00E948B01882325
S11309C009F455CF23E0221528F488E393E00E942C
S11309D083084DCFE22CF12CEE0CFF1CEE0CFF1C17
S11309E0632DC7010E945300682DC70101960E9420
S11309F05300692DC70102960E945300612FC7015D
S1130A0003960E94530085B1806285B98FEF91EE01
S1130A1024E0815090402040E1F700C0000085B1FF
S1130A208F7D85B985E793E00E94830881E3820D79
S1130A308D838DE08E838AE08F831886CE010596A0
S1130A400E94830888E893E00E948308632D81E074
S1130A500E94F5008EE893E00E948308682D82E0EE
S1130A600E94F50084E993E00E948308692D83E0E5
S1130A700E94F5008AE993E00E948308612F84E0D4
S1130A800E94F500239483E0821508F0F0CE80EAFA
S1130A9093E00E948308EBCE2C960FB6F894DEBF49
S1130AA00FBECDBFDF91CF911F910F91FF90EF90BB
S1130AB0DF90CF90BF90AF909F908F907F906F907A
S1130AC05F904F903F902F9008952F923F924F92B6
S1130AD05F926F927F928F929F92AF92BF92CF92CA
S1130AE0DF92EF92FF920F931F93CF93DF93CDB7D3
S1130AF0DEB727970FB6F894DEBF0FBECDBF7C01DB
S1130B007E836D836A01590184EC93E00E9483081B
S1130B108DEE93E00E9483089501A6016D817E818C
S1130B20C7010E9499021F820F2EF5E06F2EF02D4F
S1130B300F2EF6E97F2EF02D05EA10E0AEC084E01A
S1130B400E948B01882329F08DE094E00E948308A1
S1130B50A8C08F81882E912C880C991C880C991C14
S1130B60C4010E945F008F3F29F483E394E00E9454
S1130B70830897C0C4010E945F00382EC401019607
S1130B800E945F00482EC40102960E945F00582E06
S1130B90C40103960E945F00282E8BE594E00E9416
S1130BA083088F818F5C89838FE28A8384E38B83BC
S1130BB01C82CE0101960E94830888E893E00E947B
S1130BC08308632D81E00E94F5008EE893E00E9483
S1130BD08308642D82E00E94F50084E993E00E947A
S1130BE08308652D83E00E94F5008AE993E00E9462
S1130BF08308622D84E00E94F500912C48C084E0B3
S1130C000E948B01882329F080E794E00E948308E6
S1130C104CC0131518F41F5F892C07C0311618F443
S1130C201150892C02C088248394612FC7010E942B
S1130C309D07041518F40F5F892C04C0401610F4A6
S1130C400150892C602F8D819E810E949D0775140F
S1130C5018F47394892C04C0571410F47A94892CD2
S1130C60672DC6010E943908621410F4639405C00C
S1130C70261410F46A9401C0982C662DC5010E94B4
S1130C80DA078FE39CE90197F1F700C0000099208F
S1130C9009F4B5CF9F819F5F9F838F81843008F4CF
S1130CA04ECF8DE994E00E94830827960FB6F894FE
S1130CB0DEBF0FBECDBFDF91CF911F910F91FF908B
S1130CC0EF90DF90CF90BF90AF909F908F907F90E8
S1130CD06F905F904F903F902F900895CF93DF9344
S1130CE0CDB7DEB72D970FB6F894DEBF0FBECDBFDC
S1130CF0F8940E94900060E0CE0101960E943907AA
S1130D0061E0CE0105960E94390766E9CE01099695
S1130D100E94550865E0CE010C960E94F30760E03E
S1130D20CE0101960E949D0765EACE0105960E94B8
S1130D309D070E9467080E9468008AB184608AB98E
S1130D408BB18B7F8BB984B1806384B985B18F7C7F
S1130D5085B9789480913A050E946F0083EC94E001
S1130D600E94830887EE94E00E94830882E195E064
S1130D700E94830880913A050E94640184E00E94E5
S1130D808B018823A1F080913A0590E0019683704D
S1130D909078992324F401978C6F9F6F0196809328
S1130DA03A050E946F0080913A050E94640185E033
S1130DB00E948B01882311F380913A058130A1F0C0
S1130DC028F08230F9F0833059F137C09E01245F56
S1130DD03F4FAE01475F5F4FBE016B5F7F4FCE0158
S1130DE001960E94C20129C09E01245F3F4FAE01BB
S1130DF0475F5F4FBE016B5F7F4FCE0101960E943C
S1130E0092031BC09E01245F3F4FAE01475F5F4FBB
S1130E10BE016B5F7F4FCE0101960E940E040DC090
S1130E209E01245F3F4FAE01475F5F4FBE016B5F82
S1130E307F4FCE0101960E94650580913A050E947C
S1130E406F0080913A050E94640198CF1F920F921F
S1130E500FB60F9211248F938091C60080933C05A6
S1130E6081E080933B058F910F900FBE0F901F90F0
S1130E701895FC0160838CED95E0928381838AE56B
S1130E80838380913D05811118C0A0E8B0E01C92D5
S1130E90E1E8F0E010828C9182608C93808188611B
S1130EA080838081826080838FE39CE990938700B4
S1130EB08093860081E080933D0561110FC084B169
S1130EC0826084B9E0E8F0E080818068808388EB08
S1130ED09BE09093890080938800089584B1846096
S1130EE084B9E0E8F0E080818062808388EB9BE055
S1130EF090938B0080938A000895643F21E07207E9
S1130F0010F464EF71E06136E9E07E0710F060E60A
S1130F1079E0FC01728361838081811107C0660FCF
S1130F20771F70938900609388000895660F771F78
S1130F3070938B0060938A000895CF93DF93EC0144
S1130F40653B08F064EB6B83262F30E0ACE6B7E03A
S1130F500E94E10824EB30E040E050E00E94A00849
S1130F60B9016C507E4FCE010E947D07DF91CF9175
S1130F700895FC018381089514BC15BC84B5836075
S1130F8084BD85B5886085BD84B5806284BD85B522
S1130F90856085BD89EF87BD8AB180628AB908956D
S1130FA06A3008F46AE0623208F061E2FC016083AE
S1130FB068BD0895FC01653608F064E6618387E145
S1130FC0689F900111243695279536952795ABE7B0
S1130FD0B4E10E94E108969587956AE0680FCF0115
S1130FE00E94D00708951F93CF93DF93EC01162F2F
S1130FF00E94BC07612FCE010E94DA07DF91CF91D6
S11310001F910895FC0181810895A0EBB0E01C922A
S1131010E1EBF0E010828C9183608C938081886096
S113102080838C9180628C938081876080838FEF32
S11310308093B3008AB188608AB90895643F21E03F
S1131040720710F464EF71E06136E9E07E0710F096
S113105060E679E0FC01718360830024660F771FEA
S1131060001C660F771F001C672F702D6093B4005F
S11310700895CF93DF93EC01653B08F064EB6A833A
S1131080262F30E0ACE6B7E00E94E10824EB30E024
S113109040E050E00E94A008B9016C507E4FCE01A0
S11310A00E941E08DF91CF9108951F93CF93DF9381
S11310B0EC01162F0E940508612FCE010E94390809
S11310C0DF91CF911F910895FC01828108958AB127
S11310D08E7F8AB98AB182608AB91092C00088E989
S11310E08093C10086E08093C20087E690E09093ED
S11310F0C5008093C40008959091C00095FFFCCF73
S11311008093C6000895CF93DF93EC0103C00E943F
S11311107C08219688818111FACFDF91CF910895BF
S1131120DB018F939F930E94F008BF91AF91A29F20
S1131130800D911DA39F900DB29F900D11240895D1
S1131140A1E21A2EAA1BBB1BFD010DC0AA1FBB1FC7
S1131150EE1FFF1FA217B307E407F50720F0A21B39
S1131160B30BE40BF50B661F771F881F991F1A94A6
S113117069F760957095809590959B01AC01BD01D0
S1131180CF010895052E97FB1EF400940E94D90800
S113119057FD07D00E94A00807FC03D04EF40C941E
S11311A0D90850954095309521953F4F4F4F5F4F4B
S11311B0089590958095709561957F4F8F4F9F4FBF
S11311C00895A29FB001B39FC001A39F700D811D1C
S11311D01124911DB29F700D811D1124911D08953C
S11311E00E94E108A59F900DB49F900DA49F800DCF
S11311F0911D11240895FC0188279927E8942191D1
S11312002032E9F3293010F02E30C8F32B3241F0AC
S11312102D3239F4689404C00E942D09820F911D67
S1131220219120532A30C0F31EF4909581959F4F4D
S11312300895FC018191861721F08823D9F7992715
S113124008953197CF010895FB01DC018D91019040
S113125080190110D9F3990B08957AE0979F902D86
S1111260879F802D910D11240895F894FFCFDF
S113126E0D0A3E204D6F646F3A20004144430D0A2F
S113127E0053455249414C0D0A005245434F5244C6
S113128E0D0A00504C41594241434B0D0A00202097
S113129E5043353D656A6563757461722020504311
S11312AE343D63616D626961720D0A000D0A5B4122
S11312BE44435D2041637469766F2E20504334207D
S11312CE706172612073616C69722E0D0A005B414C
S11312DE44435D2053616C69656E646F2E2E2E0D32
S11312EE0A000D0A5B484F4D455D204D6F766965CA
S11312FE6E646F206120706F736963696F6E207303
S113130E65677572612E2E2E0D0A005B484F4D4592
S113131E5D204F4B0D0A000D0A436F6D616E646FB5
S113132E20696E76616C69646F0D0A000D0A466F52
S113133E726D61746F20696E76616C69646F0D0AEB
S113134E000D0A46616C746120273A270D0A000DC0
S113135E0A536572766F20696E76616C69646F20CC
S113136E28312D34290D0A000D0A5B53455249418B
S113137E4C5D2053313A302D3138302053323A31CE
S113138E31302D3138302053333A39352D31363012
S113139E2053343A302D31300D0A002020202020E5
S11313AE20202020277127206F2050433420706185
S11313BE72612073616C69722E0D0A000D0A5B5303
S11313CE455249414C5D2053616C69656E646F2EC4
S11313DE2E2E0D0A00710051000D0A5B5245434F2B
S11313EE52445D204D7565766520706F74732E20A2
S11313FE5043353D6775617264617220706F736519
S113140E2E205043343D73616C69722E0D0A005BBD
S113141E5245434F52445D204D61782034206B6514
S113142E796672616D65732E204C454420504235A9
S113143E20706172706164656120616C20677561F2
S113144E726461722E0D0A000D0A5B5245434F52AF
S113145E445D2053616C69656E646F2E2E2E0D0AE9
S113146E005B5245434F52445D20546F74616C20AF
S113147E6B65796672616D657320677561726461FF
S113148E646F733A20005B5245434F52445D204CC7
S113149E6973746F2E0D0A005B5245434F52445DBF
S11314AE205961206861792034206B6579667261F8
S11314BE6D65732E20426F72726120454550524FF6
S11314CE4D207061726120677261626172206D617C
S11314DE732E0D0A005B5245434F52445D204B65FB
S11314EE796672616D652000202053313D00202005
S11314FE53323D00202053333D00202053343D0011
S113150E5B5245434F52445D20342F34206B657932
S113151E6672616D657320677561726461646F7361
S113152E2E0D0A000D0A5B504C41594241434B5D4E
S113153E20496E696369616E646F20726570726FA3
S113154E64756363696F6E2E2E2E0D0A005B504C0C
S113155E41594241434B5D205043342070617261C6
S113156E2063616E63656C61722E0D0A000D0A5B59
S113157E504C41594241434B5D2043616E63656C4F
S113158E61646F20706F72207573756172696F2E4E
S113159E0D0A005B504C41594241434B5D20466954
S11315AE6E206465206B65796672616D6573206764
S11315BE72616261646F732E0D0A005B504C415967
S11315CE4241434B5D204B65796672616D65200027
S11315DE0D0A5B504C41594241434B5D2043616EB1
S11315EE63656C61646F20647572616E7465206DE1
S11315FE6F76696D69656E746F2E0D0A005B504CC3
S113160E41594241434B5D20526570726F6475635C
S113161E63696F6E2066696E616C697A6164612EAE
S113162E0D0A000D0A3D3D3D204272617A6F207213
S113163E6F626F7469636F20696E69636961646F49
S113164E203D3D3D0D0A0053313A302D31383020C6
S113165E2053323A3131302D313830202053333A41
S113166E39352D313630202053343A302D31300D6A
S113167E0A0042544E20504334203D206D6F646F57
S113168E20207C202042544E20504335203D20659E
S10D169E6A6563757461720D0A0039
S9030000FC
