:020000020000FC
:100000000FEF0DBF08E00EBF529853985A9A5B9AB3
:100010000FE004B9249A0FE307B9549A00E004BD35
:1000200005E005BD1127222744273327552769B14D
:100030006C7003D035D01DD0FCCFA9B1AC70A61721
:10004000B9F077D0A9B1AC70A61791F062FF02C0E9
:10005000A2FF06C063FF02C0A3FF06C06A2F089577
:1000600043954F706A2F08954A954F706A2F0895EF
:10007000089505B300FF0895A89A1395163079F4F2
:10008000112733953A3059F4332753955F7005B1F2
:10009000007F052B05B9541711F455271C9A0895B4
:1000A0004F704030F9F04130F9F04230F9F0433010
:1000B000F9F04430F9F04530F9F04630F9F04730C6
:1000C000F9F04830F9F04930F9F04A30F9F04B30A6
:1000D000F9F04C30F9F04D30F9F04E30F9F04F3086
:1000E000F9F008957FE31EC076E01CC07BE51AC0DE
:1000F0007FE418C076E616C07DE614C07DE712C026
:1001000077E010C07FE70EC07FE60CC077E70AC03B
:100110007CE708C079E306C07EE504C079E702C049
:1001200071E700C076FF5C9876FD5C9A7F7378B9C2
:10013000089588EC98EC9A95F1F78A95D9F7089587
:00000001FF
