:020000020000FC
:020000001CC022
:100038001EC00FEF0DBF08E00EBF112400E00093B3
:10004800000100930101009302010FE70AB90FE3D1
:1000580004B900270BB905B902E004BD03E005BDEA
:1000680009EF07BD02E000936E007894FFCF0F936D
:100078001F932F933F9305B1007F05B9109100019D
:10008800103029F0113029F0123029F006C006E0AE
:1000980005C00BE503C00FE401C006E60BB921E07B
:1000A800103019F0220F1A95FBCF05B1007F022BF3
:1000B80005B9009100010395043008F0002700936A
:1000C80000012091010130910201239509F4339533
:1000D800209301013093020104EF201701E030075B
:1000E80051F422273327209301013093020105B1EF
:1000F80010E3012705B93F912F911F910F91189592
:00000001FF
