:020000020000FC
:020000001CC022
:02001000A4C08A
:1000380096C00FEF0DBF08E00EBF112400E000933B
:100048000001009305010093060100E000930101FF
:100058000093020100930301009304010093070138
:10006800009308010093090100E007B90FE008B9FF
:1000780002E00093680001E000936C000FE70AB902
:100088000FE304B9002755270BB905B902E004BDF1
:1000980003E005BD09EF07BD02E000936E001127DC
:1000A800789400911001013039F400270093100171
:1000B80005B110E3012705B900910F01013089F757
:1000C800002700930F0102D023D0EBCF0F931F938B
:1000D8002F930091070103950C3308F413C00027F0
:1000E8001091080113951C3308F40AC011272091B8
:1000F80009012395283108F401C02227209309011A
:1001080010930801009307012F911F910F910895F3
:100118000F931F932F933F930091090111270A30E2
:1001280018F00A501395FBCF1093010100930201B8
:100138000091080111270A3018F00A501395FBCFD7
:1001480010930301009304013F912F911F910F9188
:1001580008950F93552309F451E00F9118950F93C3
:100168001F932F933F93EF93FF9305B1007F05B93A
:100178000000000010910001103029F0113031F01A
:10018800123039F009C02091010108C02091020104
:1001980005C02091030102C020910401F2E0E6E2CB
:1001A800E20FF11D04910BB9212F31E0203019F035
:1001B800330F2A95FBCF05B1007F032B05B91091AA
:1001C80000011395143008F01127109300012091B5
:1001D800050130910601239509F433952093050113
:1001E8003093060104EF201701E0300719F401E00D
:1001F8000093100108EE201703E0300749F4222786
:100208003327209305013093060101E000930F0185
:10021800FF91EF913F912F911F910F9118953F06F4
:080228005B4F666D7D077F6FDF
:00000001FF
